{
  "contractName": "Faucet",
  "abi": [
    {
      "inputs": [
        {
          "internalType": "address",
          "name": "",
          "type": "address"
        }
      ],
      "name": "funders",
      "outputs": [
        {
          "internalType": "bool",
          "name": "",
          "type": "bool"
        }
      ],
      "stateMutability": "view",
      "type": "function",
      "constant": true
    },
    {
      "inputs": [
        {
          "internalType": "uint256",
          "name": "",
          "type": "uint256"
        }
      ],
      "name": "lutFunders",
      "outputs": [
        {
          "internalType": "address",
          "name": "",
          "type": "address"
        }
      ],
      "stateMutability": "view",
      "type": "function",
      "constant": true
    },
    {
      "inputs": [],
      "name": "numOfFunders",
      "outputs": [
        {
          "internalType": "uint256",
          "name": "",
          "type": "uint256"
        }
      ],
      "stateMutability": "view",
      "type": "function",
      "constant": true
    },
    {
      "inputs": [],
      "name": "owner",
      "outputs": [
        {
          "internalType": "address",
          "name": "",
          "type": "address"
        }
      ],
      "stateMutability": "view",
      "type": "function",
      "constant": true
    },
    {
      "stateMutability": "payable",
      "type": "receive",
      "payable": true
    },
    {
      "inputs": [],
      "name": "emitLog",
      "outputs": [
        {
          "internalType": "string",
          "name": "",
          "type": "string"
        }
      ],
      "stateMutability": "pure",
      "type": "function",
      "constant": true
    },
    {
      "inputs": [],
      "name": "addFunds",
      "outputs": [],
      "stateMutability": "payable",
      "type": "function",
      "payable": true
    },
    {
      "inputs": [
        {
          "internalType": "uint256",
          "name": "withdrawAmount",
          "type": "uint256"
        }
      ],
      "name": "withdraw",
      "outputs": [],
      "stateMutability": "nonpayable",
      "type": "function"
    },
    {
      "inputs": [],
      "name": "getAllFunders",
      "outputs": [
        {
          "internalType": "address[]",
          "name": "",
          "type": "address[]"
        }
      ],
      "stateMutability": "view",
      "type": "function",
      "constant": true
    }
  ],
  "bytecode": "0x608060405234801561001057600080fd5b50336000806101000a81548173ffffffffffffffffffffffffffffffffffffffff021916908373ffffffffffffffffffffffffffffffffffffffff160217905550610a83806100606000396000f3fe60806040526004361061007f5760003560e01c80638da5cb5b1161004e5780638da5cb5b14610159578063a26759cb14610184578063af7f2c9b1461018e578063f42c13bf146101b957610086565b8063031b36771461008b5780631f8947ea146100c85780632e1a7d4d146101055780636fbbb55d1461012e57610086565b3661008657005b600080fd5b34801561009757600080fd5b506100b260048036038101906100ad91906105eb565b6101e4565b6040516100bf9190610633565b60405180910390f35b3480156100d457600080fd5b506100ef60048036038101906100ea9190610684565b610204565b6040516100fc91906106c0565b60405180910390f35b34801561011157600080fd5b5061012c60048036038101906101279190610684565b610237565b005b34801561013a57600080fd5b506101436102ce565b6040516101509190610799565b60405180910390f35b34801561016557600080fd5b5061016e610420565b60405161017b91906106c0565b60405180910390f35b61018c610444565b005b34801561019a57600080fd5b506101a3610562565b6040516101b091906107ca565b60405180910390f35b3480156101c557600080fd5b506101ce610568565b6040516101db919061087e565b60405180910390f35b60026020528060005260406000206000915054906101000a900460ff1681565b60036020528060005260406000206000915054906101000a900473ffffffffffffffffffffffffffffffffffffffff1681565b80670de0b6b3a7640000811115610283576040517f08c379a000000000000000000000000000000000000000000000000000000000815260040161027a90610912565b60405180910390fd5b3373ffffffffffffffffffffffffffffffffffffffff166108fc839081150290604051600060405180830381858888f193505050501580156102c9573d6000803e3d6000fd5b505050565b606060008054906101000a900473ffffffffffffffffffffffffffffffffffffffff1673ffffffffffffffffffffffffffffffffffffffff163373ffffffffffffffffffffffffffffffffffffffff161461032857600080fd5b600060015467ffffffffffffffff81111561034657610345610932565b5b6040519080825280602002602001820160405280156103745781602001602082028036833780820191505090505b50905060005b600154811015610418576003600082815260200190815260200160002060009054906101000a900473ffffffffffffffffffffffffffffffffffffffff168282815181106103cb576103ca610961565b5b602002602001019073ffffffffffffffffffffffffffffffffffffffff16908173ffffffffffffffffffffffffffffffffffffffff16815250508080610410906109bf565b91505061037a565b508091505090565b60008054906101000a900473ffffffffffffffffffffffffffffffffffffffff1681565b6000339050600260008273ffffffffffffffffffffffffffffffffffffffff1673ffffffffffffffffffffffffffffffffffffffff16815260200190815260200160002060009054906101000a900460ff1661055f576001600260008373ffffffffffffffffffffffffffffffffffffffff1673ffffffffffffffffffffffffffffffffffffffff16815260200190815260200160002060006101000a81548160ff0219169083151502179055508060036000600154815260200190815260200160002060006101000a81548173ffffffffffffffffffffffffffffffffffffffff021916908373ffffffffffffffffffffffffffffffffffffffff16021790555060016000815480929190610559906109bf565b91905055505b50565b60015481565b6060604051806080016040528060458152602001610a0960459139905090565b600080fd5b600073ffffffffffffffffffffffffffffffffffffffff82169050919050565b60006105b88261058d565b9050919050565b6105c8816105ad565b81146105d357600080fd5b50565b6000813590506105e5816105bf565b92915050565b60006020828403121561060157610600610588565b5b600061060f848285016105d6565b91505092915050565b60008115159050919050565b61062d81610618565b82525050565b60006020820190506106486000830184610624565b92915050565b6000819050919050565b6106618161064e565b811461066c57600080fd5b50565b60008135905061067e81610658565b92915050565b60006020828403121561069a57610699610588565b5b60006106a88482850161066f565b91505092915050565b6106ba816105ad565b82525050565b60006020820190506106d560008301846106b1565b92915050565b600081519050919050565b600082825260208201905092915050565b6000819050602082019050919050565b610710816105ad565b82525050565b60006107228383610707565b60208301905092915050565b6000602082019050919050565b6000610746826106db565b61075081856106e6565b935061075b836106f7565b8060005b8381101561078c5781516107738882610716565b975061077e8361072e565b92505060018101905061075f565b5085935050505092915050565b600060208201905081810360008301526107b3818461073b565b905092915050565b6107c48161064e565b82525050565b60006020820190506107df60008301846107bb565b92915050565b600081519050919050565b600082825260208201905092915050565b60005b8381101561081f578082015181840152602081019050610804565b8381111561082e576000848401525b50505050565b6000601f19601f8301169050919050565b6000610850826107e5565b61085a81856107f0565b935061086a818560208601610801565b61087381610834565b840191505092915050565b600060208201905081810360008301526108988184610845565b905092915050565b7f43616e6e6f74207769746864726177206d6f7265207468616e2031206574686560008201527f7200000000000000000000000000000000000000000000000000000000000000602082015250565b60006108fc6021836107f0565b9150610907826108a0565b604082019050919050565b6000602082019050818103600083015261092b816108ef565b9050919050565b7f4e487b7100000000000000000000000000000000000000000000000000000000600052604160045260246000fd5b7f4e487b7100000000000000000000000000000000000000000000000000000000600052603260045260246000fd5b7f4e487b7100000000000000000000000000000000000000000000000000000000600052601160045260246000fd5b60006109ca8261064e565b91507fffffffffffffffffffffffffffffffffffffffffffffffffffffffffffffffff8214156109fd576109fc610990565b5b60018201905091905056fe75736520746869732066756e6374696f6e206265636175736520776520696d706c656d656e7465642074686520616273747261637420636f6e7472616374204c6f67676572a264697066735822122005050eb88679b210c48e15c14fc674887860d79942fe2456b22dbf807b8a89de64736f6c634300080b0033",
  "immutableReferences": {},
  "source": "// SPDX-License-Identifier: MIT\r\npragma solidity >=0.4.22 <0.9.0;\r\nimport \"./Owned.sol\";\r\nimport \"./Logger.sol\";\r\nimport \"./IFaucet.sol\";\r\n\r\ncontract Faucet is Owned, Logger, IFaucet {\r\n\r\n    uint public numOfFunders;\r\n    mapping(address => bool) public funders;\r\n    mapping(uint => address) public lutFunders; //look-up-table funders\r\n\r\n    \r\n\r\n    modifier limitWithdraw(uint withdrawAmount) {\r\n        require(withdrawAmount <= 1000000000000000000, \"Cannot withdraw more than 1 ether\");\r\n        _;\r\n    }\r\n\r\n    //special function that is called when you make a tx that doesnt specify a function name\r\n    receive() external payable{}\r\n\r\n    function emitLog() public override pure returns(string memory) {\r\n        return \"use this function because we implemented the abstract contract Logger\";\r\n    }\r\n\r\n    function addFunds() external payable {\r\n        address funder = msg.sender;\r\n        if(!funders[funder]) {\r\n            funders[funder] = true;\r\n            lutFunders[numOfFunders] = funder;\r\n            numOfFunders++;\r\n        }\r\n    }\r\n\r\n    function withdraw(uint withdrawAmount) override external limitWithdraw(withdrawAmount) { //need override because of interface\r\n        payable(msg.sender).transfer(withdrawAmount);\r\n    }\r\n\r\n    function getAllFunders() external view onlyOwner returns (address[] memory)  {\r\n        address[] memory _funders = new address[](numOfFunders);\r\n        for(uint i = 0; i < numOfFunders; i ++) {\r\n            _funders[i] = lutFunders[i];\r\n        } \r\n\r\n        return _funders;\r\n    }\r\n}\r\n\r\n// const instance = await Faucet.deployed()\r\n// instance.addFunds({from: accounts[0], value: \"2000000000000000000\"})\r\n// instance.withdraw(\"2000000000000000000\", {from: accounts[1]})",
  "sourcePath": "C:\\Users\\avysk\\Desktop\\Code\\solidity\\blockchain\\faucet\\contracts\\FaucetContract.sol",
  "compiler": {
    "name": "solc",
    "version": "0.8.11+commit.d7f03943.Emscripten.clang"
  },
  "schemaVersion": "3.4.4",
  "updatedAt": "2022-02-23T22:55:46.881Z",
  "networkType": "ethereum",
  "devdoc": {
    "kind": "dev",
    "methods": {},
    "version": 1
  },
  "userdoc": {
    "kind": "user",
    "methods": {},
    "version": 1
  }
}